{"abi":[{"type":"function","name":"encodeProof","inputs":[{"name":"_pi_a","type":"uint256[]","internalType":"uint256[]"},{"name":"_pi_b","type":"uint256[][]","internalType":"uint256[][]"},{"name":"_pi_c","type":"uint256[]","internalType":"uint256[]"}],"outputs":[{"name":"","type":"bytes","internalType":"bytes"}],"stateMutability":"pure"}],"bytecode":{"object":"0x6080604052348015600e575f5ffd5b506106608061001c5f395ff3fe608060405234801561000f575f5ffd5b5060043610610029575f3560e01c8063f9ba98b61461002d575b5f5ffd5b61004760048036038101906100429190610319565b61005d565b604051610054919061041d565b60405180910390f35b60605f60405180606001604052808681526020018581526020018481525090508060405160200161008e919061060a565b6040516020818303038152906040529150509392505050565b5f604051905090565b5f5ffd5b5f5ffd5b5f5ffd5b5f601f19601f8301169050919050565b7f4e487b71000000000000000000000000000000000000000000000000000000005f52604160045260245ffd5b610102826100bc565b810181811067ffffffffffffffff82111715610121576101206100cc565b5b80604052505050565b5f6101336100a7565b905061013f82826100f9565b919050565b5f67ffffffffffffffff82111561015e5761015d6100cc565b5b602082029050602081019050919050565b5f5ffd5b5f819050919050565b61018581610173565b811461018f575f5ffd5b50565b5f813590506101a08161017c565b92915050565b5f6101b86101b384610144565b61012a565b905080838252602082019050602084028301858111156101db576101da61016f565b5b835b8181101561020457806101f08882610192565b8452602084019350506020810190506101dd565b5050509392505050565b5f82601f830112610222576102216100b8565b5b81356102328482602086016101a6565b91505092915050565b5f67ffffffffffffffff821115610255576102546100cc565b5b602082029050602081019050919050565b5f6102786102738461023b565b61012a565b9050808382526020820190506020840283018581111561029b5761029a61016f565b5b835b818110156102e257803567ffffffffffffffff8111156102c0576102bf6100b8565b5b8086016102cd898261020e565b8552602085019450505060208101905061029d565b5050509392505050565b5f82601f830112610300576102ff6100b8565b5b8135610310848260208601610266565b91505092915050565b5f5f5f606084860312156103305761032f6100b0565b5b5f84013567ffffffffffffffff81111561034d5761034c6100b4565b5b6103598682870161020e565b935050602084013567ffffffffffffffff81111561037a576103796100b4565b5b610386868287016102ec565b925050604084013567ffffffffffffffff8111156103a7576103a66100b4565b5b6103b38682870161020e565b9150509250925092565b5f81519050919050565b5f82825260208201905092915050565b8281835e5f83830152505050565b5f6103ef826103bd565b6103f981856103c7565b93506104098185602086016103d7565b610412816100bc565b840191505092915050565b5f6020820190508181035f83015261043581846103e5565b905092915050565b5f81519050919050565b5f82825260208201905092915050565b5f819050602082019050919050565b61046f81610173565b82525050565b5f6104808383610466565b60208301905092915050565b5f602082019050919050565b5f6104a28261043d565b6104ac8185610447565b93506104b783610457565b805f5b838110156104e75781516104ce8882610475565b97506104d98361048c565b9250506001810190506104ba565b5085935050505092915050565b5f81519050919050565b5f82825260208201905092915050565b5f819050602082019050919050565b5f6105288383610498565b905092915050565b5f602082019050919050565b5f610546826104f4565b61055081856104fe565b9350836020820285016105628561050e565b805f5b8581101561059d578484038952815161057e858261051d565b945061058983610530565b925060208a01995050600181019050610565565b50829750879550505050505092915050565b5f606083015f8301518482035f8601526105c98282610498565b915050602083015184820360208601526105e3828261053c565b915050604083015184820360408601526105fd8282610498565b9150508091505092915050565b5f6020820190508181035f83015261062281846105af565b90509291505056fea2646970667358221220992424226466261023a44c29d2e8395b949a0365f74269a823da4b0dc60fbcf264736f6c634300081e0033","linkReferences":{}},"methodIdentifiers":{"encodeProof(uint256[],uint256[][],uint256[])":"f9ba98b6"},"id":0}